:100000000C9462000C942D030C948A000C948A00CA
:100010000C948A000C948A000C948A000C946B0453
:100020000C948A000C948A000C948A000C948A0028
:100030000C948A000C9487030C948A000C948A0018
:100040000C941A0B0C948A000C948A000C948A006D
:100050000C948A000C948A000C948A000C948A00F8
:100060000C948A000C948A000000000024002700F1
:100070002A0000000000250028002B0000000000DE
:1000800023002600290004040404040404040202DA
:100090000202020203030303030301020408102007
:1000A0004080010204081020010204081020000012
:1000B0000007000201000003040600000000000029
:1000C0000000890411241FBECFEFD8E0DEBFCDBFF2
:1000D00011E0A0E0B1E0E8E6FAE102C005900D927F
:1000E000AC3FB107D9F712E0ACEFB1E001C01D920F
:1000F000A03FB107E1F710E0C4ECD0E004C02297C4
:10010000FE010E94F70CC23CD107C9F70E945C0CAB
:100110000C94320D0C940000AEE0B0E0E2E9F0E0A7
:100120000C94090D0D891E8986E08C831A8309833E
:100130008FEF9FE79E838D839E01275E3F4FCE0109
:1001400001966F89788DA9010E94B0002F813885B2
:10015000020F131FF80110822E96E4E00C94250D77
:10016000ABE0B0E0E6EBF0E00C94FB0C3C012B01C3
:100170005A01FC0117821682838181FD03C06FEF53
:100180007FEFC6C19AE0892E1E010894211C311C04
:10019000F3012381F20123FD859123FF81912F013A
:1001A000882309F4B2C1853239F423FD859123FFF8
:1001B00081912F01853229F490E0B3010E94A302BE
:1001C000E7CF982FFF24EE249924FFE1FF15D0F00C
:1001D0009B3269F09C3228F4903259F0933291F4BA
:1001E0000EC09D3249F0903369F441E024C052E0E2
:1001F000F52A84E0F82A28C098E0F92A25C0E0E131
:10020000FE2A22C0F7FC29C0892F80538A3070F45F
:10021000F6FE05C0989C902C1124980E15C0E89C01
:10022000E02C1124E80EF0E2FF2A0EC09E3229F4E1
:10023000F6FC6BC140E4F42A07C09C3619F450E880
:10024000F52A02C0983649F4F20123FD959123FF67
:1002500091912F01992309F0B8CF892F85548330CC
:1002600018F08052833038F444E050E0A40EB51EFC
:100270005FE359830FC0933631F0933779F09335AC
:1002800009F056C020C0F5018081898342E050E02A
:10029000A40EB51E610101E010E012C0F501C0809E
:1002A000D180F6FC03C06FEF7FEF02C0692D70E0D4
:1002B00042E050E0A40EB51EC6010E9498028C01D7
:1002C0005FE7F52214C0F501C080D180F6FC03C0C1
:1002D0006FEF7FEF02C0692D70E042E050E0A40EA6
:1002E000B51EC6010E948D028C0150E8F52AF3FE6E
:1002F00007C01AC080E290E0B3010E94A302EA9412
:100300008E2D90E008171907A8F30EC0F601F7FC30
:100310008591F7FE81916F0190E0B3010E94A302E5
:10032000E110EA94015010400115110579F7EAC077
:10033000943611F0993669F5F7FE08C0F501208171
:1003400031814281538184E090E00AC0F5018081CF
:1003500091819C01442737FD4095542F82E090E025
:10036000A80EB91E9FE6F92257FF09C05095409587
:10037000309521953F4F4F4F5F4FE0E8FE2ACA016D
:10038000B901A1012AE030E00E94CF02D82ED21894
:1003900040C0953729F41F2D1F7E2AE030E01DC094
:1003A0001F2D197F9F3661F0903720F4983509F0A2
:1003B000ACC00FC0903739F0983709F0A6C004C020
:1003C00028E030E00AC0106114FD146020E130E044
:1003D00004C014FD166020E132E017FF08C0F501EB
:1003E000608171818281938144E050E008C0F50111
:1003F00080819181BC0180E090E042E050E0A40E59
:10040000B51EA1010E94CF02D82ED2188FE7F82E78
:10041000F122F6FE0BC05EEFF522D91438F4F4FE9B
:1004200007C0F2FC05C08FEEF82202C01D2D01C0EE
:10043000192DF4FE0DC0FE01ED0DF11D80818033FC
:1004400019F499EEF92208C01F5FF2FE05C003C03F
:100450008F2D867809F01F5F0F2DF3FC14C0F0FE7E
:100460000FC01E1510F09D2C0BC09D2C9E0C911AD8
:100470001E2D06C080E290E0B3010E94A3021F5F20
:100480001E15C0F304C01E1510F4E11A01C0EE24BD
:1004900004FF0FC080E390E0B3010E94A30202FFBB
:1004A0001DC001FD03C088E790E00EC088E590E024
:1004B0000BC0802F867891F001FF02C08BE201C053
:1004C00080E2F7FC8DE290E0B3010E94A30206C037
:1004D00080E390E0B3010E94A3029A94D914C0F380
:1004E000DA94F101ED0DF11D808190E0B3010E94DD
:1004F000A302DD20A9F706C080E290E0B3010E94CC
:10050000A302EA94EE20C1F743CEF301668177811E
:10051000CB012B96E2E10C94170DFC010590615084
:1005200070400110D8F7809590958E0F9F1F089509
:10053000FC016150704001900110D8F780959095B2
:100540008E0F9F1F08950F931F93CF93DF938C01FE
:10055000EB018B8181FF1BC082FF0DC02E813F818B
:100560008C819D812817390764F4E881F981019312
:10057000F983E88306C0E885F985802F0995892BE2
:1005800031F48E819F8101969F838E8302C00FEF8D
:100590001FEFC801DF91CF911F910F910895FA01CC
:1005A000AA27283051F1203181F1E8946F936E7FB2
:1005B0006E5F7F4F8F4F9F4FAF4FB1E03ED0B4E0A3
:1005C0003CD0670F781F891F9A1FA11D680F791FE4
:1005D0008A1F911DA11D6A0F711D811D911DA11DF5
:1005E00020D009F468943F912AE0269F1124301905
:1005F000305D3193DEF6CF010895462F4770405DA0
:100600004193B3E00FD0C9F7F6CF462F4F70405D4E
:100610004A3318F0495D31FD4052419302D0A9F7A9
:10062000EACFB4E0A6959795879577956795BA95A3
:10063000C9F700976105710508959B01AC010A2E69
:1006400006945795479537952795BA95C9F7620F40
:10065000731F841F951FA01D08951F920F920FB640
:100660000F9211242F938F939F93AF93BF938091F9
:100670001102909112022FEF8F3F920729F00196FD
:1006800090931202809311028091A7029091A80288
:10069000A091A902B091AA020196A11DB11D80935B
:1006A000A7029093A802A093A902B093AA02815D29
:1006B0009B46AC4DB24060F080ED9BE6ACEDB2E005
:1006C0008093A7029093A802A093A902B093AA02D4
:1006D0005B9A85E38A95F1F75B988091BF02882346
:1006E00061F49091B801419A25E004C0822F8A9567
:1006F000F1F791509923D1F74198BF91AF919F9114
:100700008F912F910F900FBE0F901F9018951F92F1
:100710000F920FB60F9211242F933F934F935F9335
:100720006F937F938F939F93AF93BF93EF93FF93B9
:100730008FE89DEF90938500809384008091E5027F
:100740008F5F8093E502853038F01092E5025B9A66
:1007500085E38A95F1F75B988091E6028F5F80933D
:10076000E602893108F49AC01092E602E1E1F2E073
:1007700020E030E040E050E081919191A0E0B0E0D5
:10078000280F391F4A1F5B1F82E0E73AF807A1F7DD
:10079000203482E438078FE0480780E0580720F0D3
:1007A0002FE332E44FE050E02093AB023093AC02F1
:1007B0004093AD025093AE028091AF029091B0028F
:1007C000A091B102B091B20282179307A407B507B6
:1007D00040F42093AF023093B0024093B1025093A3
:1007E000B2028091BA0190E0A0E0B0E0281739078A
:1007F0004A075B0730F081E08093BC02E3EAF2E055
:100800000BC01092BC028091BE02882311F010929E
:10081000BD021092BE02F2CF8081918193838283C8
:10082000329782E0EF30F807B9F7138212826091B5
:10083000A7027091A8028091A9029091AA022BE4CC
:1008400030E040E050E00E94B40C20E13EE040E0A7
:1008500050E00E94D30C2093B3023093B402409333
:10086000B5025093B6029091B9029336A8F48091E4
:10087000B7028F5F8093B7028C3370F08091B8021B
:100880008F5F8093B8028C3328F09F5F9093B902FA
:100890001092B8021092B7021092BB028091C0026F
:1008A000882341F081508093C002882319F481E0AD
:1008B0008093C102FF91EF91BF91AF919F918F9172
:1008C0007F916F915F914F913F912F910F900FBE4C
:1008D0000F901F9018951F920F920FB60F92112430
:1008E0002F938F939F931092B2009091B901419AE8
:1008F00025E004C0822F8A95F1F791509923D1F712
:1009000041989F918F912F910F900FBE0F901F9044
:100910001895CF92EF920F938CEF91E068E049E049
:1009200024E005E056E0E52E37E0C32E0E94E10A00
:100930000F91EF90CF90089580E00E94A70B9C014B
:10094000EEEAF1E040E0808191814F5F281739079E
:1009500010F4842F089532964530A9F780E0089569
:100960000E949C049091E4028917A1F084EF91E029
:1009700020E931E0F9013197F1F70197D9F70E94A9
:100980009C04982F8091E402981721F09093E40240
:10099000892F089580E008957F928F929F92AF9261
:1009A000BF92CF92DF92EF92FF920F931F93CF935C
:1009B000DF93C090BF0281E08093BF028CEF91E093
:1009C0000E94230A8CEF91E060E041E00E94F4096C
:1009D0008CEF91E060E071E00E94B10CDD24EE2428
:1009E000FF24870177247394C2ECD2E0F8E0AF2EA5
:1009F000F1E0BF2EE4E08E2E79E0972E8091BB02CD
:100A00008823E9F57092BB028091AB029091AC0211
:100A1000A091AD02B091AE02E816F9060A071B07D5
:100A200010F47C018D018DB79EB708970FB6F8942E
:100A30009EBF0FBE8DBFEDB7FEB73196ADB7BEB747
:100A40001296DC93CE931197B382A282E482F58250
:100A5000068317830E948C008DB79EB708960FB649
:100A6000F8949EBF0FBE8DBF8CEF91E065E040E033
:100A70000E94F4098CEF91E0BE010E94B10CDD20D0
:100A800051F49092C0021092C10280917000826075
:100A90008093700003C091E0D91681F48091C10267
:100AA000813019F0DD24D39411C08092C0021092DD
:100AB000C102809170008D7F809370008091C1028F
:100AC000813011F4DD2402C062E0D62E0E94B00411
:100AD000843009F093CF809170008D7F80937000F7
:100AE0008CEF91E060E041E00E94F4098CEF91E02E
:100AF00062E171E00E94B10C83E28093C002109227
:100B0000C10204C00E94B004843021F08091C1026F
:100B10008823C1F38CEF91E00E94230AC092BF02A8
:100B200081E08093BD021092BA021092BB02DF9165
:100B3000CF911F910F91FF90EF90DF90CF90BF90DA
:100B4000AF909F908F907F9008958F929F92AF92D9
:100B5000BF92CF92DF92EF92FF920F931F93CF93AA
:100B6000DF938CEF91E00E94230A1092BB0210E009
:100B700001E0C2ECD2E090E2892E91E0992E87E369
:100B8000A82E81E0B82EB5E2CB2EB1E0DB2EA9E491
:100B9000EA2EA1E0FA2E8091BC02882331F08091E8
:100BA000BD02882311F40E94CC048091BB028823EB
:100BB00009F087C00093BB028CEF91E060E041E058
:100BC0000E94F4098CEF91E062E00E94B8098CEF7A
:100BD00091E062E041E00E94F40900D000D000D032
:100BE000EDB7FEB73196ADB7BEB71296DC93CE9394
:100BF000119793828282812F90E00196958384835E
:100C00000E948C008DB79EB706960FB6F8949EBFD3
:100C10000FBE8DBF8CEF91E0BE010E94B10C113070
:100C2000B9F0113020F0123009F03FC022C000D0DE
:100C300000D000D0EDB7FEB73196ADB7BEB7129673
:100C4000DC93CE931197D382C2828091B80121C0E8
:100C500000D000D000D0EDB7FEB73196ADB7BEB72B
:100C60001296DC93CE931197B382A2828091B90140
:100C700010C000D000D000D0EDB7FEB73196ADB7B0
:100C8000BEB71296DC93CE931197F382E2828091E5
:100C9000BA01848315820E948C008DB79EB7069698
:100CA0000FB6F8949EBF0FBE8DBF8CEF91E060E051
:100CB00040E00E94F4098CEF91E062EC72E00E9447
:100CC000B10C0E94B004833091F1843038F481304B
:100CD00009F465C0823009F05ECF07C0843009F4A2
:100CE0005EC0853009F057CF44C0113069F0113033
:100CF00020F0123009F053C014C08091B801823343
:100D000008F04DC0865F1FC08091B901823308F0A2
:100D100046C0813011F41092B9018091B9018B5F06
:100D20001AC08091BA018A3FD0F5865F1FC011308A
:100D300069F0113018F0123091F513C08091B801AC
:100D40008B3068F18A508093B80129C08091B90135
:100D5000863020F085508093B90121C01093B901ED
:100D60001EC08091BA018932D0F08A508093BA01B6
:100D700016C01F5F133098F08CEF91E00E94230A99
:100D80001092BB02DF91CF911F910F91FF90EF90D6
:100D9000DF90CF90BF90AF909F908F90089510926A
:100DA000BB02F9CECF93DF938091BC02882331F050
:100DB0008091BD02882311F40E94CC048091BB0273
:100DC000882309F008C181E08093BB028091BA02B8
:100DD000882321F0813009F04CC020C08DB79EB728
:100DE00008970FB6F8949EBF0FBE8DBFEDB7FEB744
:100DF000319682EC92E0ADB7BEB712969C938E937B
:100E000011978AE591E0938382838091AB02909160
:100E1000AC02A091AD02B091AE021DC0ADB7BEB79D
:100E200018970FB6F894BEBF0FBEADBFEDB7FEB7B3
:100E3000319682EC92E012969C938E93119789E6FC
:100E400091E0938382838091B3029091B402A09148
:100E5000B502B091B60284839583A683B7830E94BE
:100E60008C008DB79EB708960FB6F8949EBF0FBE44
:100E70008DBF8CEF91E060E040E00E94F409C2EC8D
:100E8000D2E08CEF91E0BE010E94B10C8091BA02D9
:100E9000882321F0813009F04FC025C0ADB7BEB71F
:100EA00018970FB6F894BEBF0FBEADBFEDB7FEB733
:100EB00031961296DC93CE93119788E791E0938355
:100EC00082838091AF029091B002A091B102B09163
:100ED000B20284839583A683B7830E948C008DB76A
:100EE0009EB7089624C0ADB7BEB71A970FB6F89450
:100EF000BEBF0FBEADBFEDB7FEB731961296DC9305
:100F0000CE9311978FE791E0938382838091B9020A
:100F1000848315828091B802868317828091B702FC
:100F2000808711860E948C008DB79EB70A960FB6F7
:100F3000F8949EBF0FBE8DBF8CEF91E068E041E05A
:100F40000E94F4098CEF91E062EC72E00E94B10C17
:100F50008CEF91E060E041E00E94F4098091BD02D5
:100F60008823A1F08091BE02882349F08CEF91E0A4
:100F700063E00E94B8098CEF91E063E00FC08CEF52
:100F800091E06EE871E00E94B10C0AC08CEF91E034
:100F900060E00E94B8098CEF91E061E00E94B8091E
:100FA0008CEF91E063E041E00E94F4098091BF0280
:100FB000882339F08CEF91E06EE871E00E94B10C6B
:100FC0000AC08CEF91E064E00E94B8098CEF91E0D8
:100FD00065E00E94B8090E94B004833019F18430A2
:100FE00030F4813059F0823009F070C010C0843084
:100FF00009F450C0853009F069C066C090E0809166
:10100000BF02882309F491E09093BF025AC08091F7
:10101000BA028F5F8093BA02823008F452C01092F5
:10102000BA024FC08091BA02882321F0813009F0C2
:1010300048C019C0E1E1F2E01192119292E0E73A62
:10104000F907D1F71092AB021092AC021092AD02E8
:101050001092AE021092AF021092B0021092B10242
:101060001092B2022EC01092A7021092A802109203
:10107000A9021092AA021092B3021092B402109226
:10108000B5021092B6021092B7021092B8021092F6
:10109000B90217C08091BC029091BD02882359F01B
:1010A000913079F490E08091BE02882309F491E0B8
:1010B0009093BE0206C080E0992309F481E08093FA
:1010C000BD021092BB0202C00E94A505DF91CF9124
:1010D0000895FF920F931F93CF93DF9310926F00A9
:1010E0001092800085E0809381002FE83DEF3093DF
:1010F000850020938400109270001092B0008093BD
:10110000B1008DE38093B3005B98539A4198399A6C
:101110005A9A52982A9A229A8CEF91E060E142E022
:1011200020E00E942B0A8CEF91E061E971E00E94BF
:10113000B10C8CEF91E060E041E00E94F4098CEF8B
:1011400091E060EA71E00E94B10CC0EDD7E025E3C8
:10115000F22E00EA1FE05B9A8F2D8A95F1F75B98DB
:10116000C8010197F1F70E94B004882311F4219778
:1011700091F78CEF91E00E94230A8CEF91E060E000
:101180004BEB51E00E94C2098CEF91E061E043EC2F
:1011900051E00E94C2098CEF91E062E04BEC51E01B
:1011A0000E94C2098CEF91E063E043ED51E00E94A0
:1011B000C2098CEF91E064E04BED51E00E94C2095E
:1011C0008CEF91E065E043EE51E00E94C2098CEFA4
:1011D00091E066E044ED52E00E94C2098CEF91E09C
:1011E00067E04CED52E00E94C20991E090936F00DD
:1011F00082E0809369009DBBDF91CF911F910F9199
:10120000FF9008950F931F938C01FC01868160E08D
:101210000E94080C81E090E00E94620BF801868138
:1012200061E00E94080C81E090E00E94620BF801EE
:10123000868160E00E94080C84E690E00E94620BC8
:101240001F910F910895CF92DF92EF92FF920F932B
:101250001F93CF93DF93D82EC92E282F392FC90182
:101260008C01C0E0D0E0E62EFF24F801878161E028
:101270000E94C90BB7010C2E02C0759567950A94A0
:10128000E2F76170F80187810E94080C21960F5FD8
:101290001F4FC830D10549F78D2D9C2D0E940209A2
:1012A000DF91CF911F910F91FF90EF90DF90CF9042
:1012B0000895CF92DF92EF92FF920F931F93CF93F7
:1012C000DF93D82EC92E282F392FC9018C01C0E0F9
:1012D000D0E0E62EFF24F801878161E00E94C90B6F
:1012E000B7010C2E02C0759567950A94E2F76170FC
:1012F000F80187810E94080C21960F5F1F4FC430B0
:10130000D10549F78D2D9C2D0E940209DF91CF91C7
:101310001F910F91FF90EF90DF90CF9008951F9352
:10132000CF93DF93EC01162F8C81642F0E94080C61
:101330008D818F3F19F060E00E94080C8F8584FF3B
:1013400005C0CE01612F0E9423090EC0612F70E0FD
:1013500084E0759567958A95E1F7CE010E94590959
:10136000CE01612F0E945909DF91CF911F910895FD
:1013700041E00E948F0981E090E0089540E00E94E2
:101380008F090895EF92FF920F931F93CF93DF93EE
:101390008C017A016770660F660F660F60640E94A9
:1013A000BE09C0E0D0E0D801ED91FC91D701AC0FAF
:1013B000BD1F0190F081E02DC8016C910995219627
:1013C000C830D10581F7DF91CF911F910F91FF9028
:1013D000EF900895FC016089862F8460808B6C609B
:1013E000CF010E94BE090895DF93CF93CDB7DEB73A
:1013F00028970FB6F894DEBF0FBECDBF9C01FE014B
:101400003196A4EFB1E088E00D9001928150E1F7B0
:10141000F9018389481710F0482F4150E42FF0E07C
:10142000EE0FFF1FEC0FFD1F8181680F6068C9017F
:101430000E94BE0928960FB6F894DEBF0FBECDBF3E
:10144000CF91DF91089561E00E94BE0980ED97E0A1
:101450000E94620B0895CF93DF93EC01423018F0A5
:101460008F8588608F874B8B1C8A222329F041301F
:1014700019F48F8584608F8780E593EC0E94620B5E
:101480008C8160E00E94080C8E8160E00E94080C54
:101490008D818F3F19F060E00E94080C6F8564FD1C
:1014A0001DC0CE0163E00E94590984E991E10E94C8
:1014B000620BCE0163E00E94590984E991E10E9428
:1014C000620BCE0163E00E94590986E990E00E9418
:1014D000620BCE0162E00E94590916C06062CE0123
:1014E0000E94BE0984E991E10E94620B6F856062EF
:1014F000CE010E94BE0986E990E00E94620B6F85D2
:101500006062CE010E94BE096F856062CE010E94BA
:10151000BE0984E0888BCE010E94EA09CE010E94B8
:10152000230A82E0898BCE0166E00E94BE09DF912A
:10153000CF9108956F927F928F92AF92CF92EF9258
:101540000F931F93DF93CF93CDB7DEB73C01162FD8
:10155000842FF301448325830683E782C086A18616
:1015600082869D8593879E8594879F859587988998
:10157000968761E00E94C90BF30185818F3F19F0C6
:1015800061E00E94C90BF301868161E00E94C90BF2
:10159000112319F0F301178603C080E1F301878757
:1015A000C30160E141E020E00E942B0ACF91DF916E
:1015B0001F910F91EF90CF90AF908F907F906F9091
:1015C00008958F92AF92CF92EF920F931F93CF9384
:1015D000DF93DC01362F542F722F102FAE2C8C2C62
:1015E00013961C921E92129780EF91E011969C9395
:1015F0008E9300D000D0EDB7FEB73196CDB7DEB7F1
:101600001982118212821382CD0161E0432F2FEFE4
:10161000052FE72EC12E0E949A0A0F900F900F906F
:101620000F90DF91CF911F910F91EF90CF90AF90DE
:101630008F9008951F920F920FB60F9211242F933F
:101640003F938F939F93AF93BF938091EB029091C1
:10165000EC02A091ED02B091EE023091EF02019602
:10166000A11DB11D232F2D5F2D3720F02D57019681
:10167000A11DB11D2093EF028093EB029093EC0229
:10168000A093ED02B093EE028091E7029091E80200
:10169000A091E902B091EA020196A11DB11D8093CB
:1016A000E7029093E802A093E902B093EA02BF91A7
:1016B000AF919F918F913F912F910F900FBE0F90FF
:1016C0001F901895019739F0880F991F880F991F5F
:1016D00002970197F1F70895789484B5826084BDEC
:1016E00084B5816084BD85B5826085BD85B5816026
:1016F00085BDEEE6F0E0808181608083E1E8F0E086
:101700001082808182608083808181608083E0E8B4
:10171000F0E0808181608083E1EBF0E08081846093
:101720008083E0EBF0E0808181608083EAE7F0E095
:1017300080818460808380818260808380818160F9
:1017400080838081806880831092C1000895982FE3
:101750008E3008F09E5097708091EB018295880F33
:10176000880F807C892B80937C0080917A00806434
:1017700080937A0080917A0086FDFCCF20917800DA
:1017800040917900942F80E030E0282B392BC9015B
:101790000895CF93DF93482F50E0CA0186569F4F9C
:1017A000FC0134914A575F4FFA018491882369F113
:1017B00090E0880F991FFC01E859FF4FA591B49163
:1017C000FC01EE58FF4FC591D491662351F42FB719
:1017D000F8948C91932F909589238C9388818923F9
:1017E0000BC0623061F42FB7F8948C91932F9095D1
:1017F00089238C938881832B88832FBF06C09FB752
:10180000F8948C91832B8C939FBFDF91CF91089597
:10181000482F50E0CA0182559F4FFC012491CA0114
:1018200086569F4FFC0194914A575F4FFA013491BD
:10183000332309F440C0222351F1233071F02430C6
:1018400028F42130A1F0223011F514C02630B1F077
:101850002730C1F02430D9F404C0809180008F7704
:1018600003C0809180008F7D8093800010C084B57C
:101870008F7702C084B58F7D84BD09C08091B00090
:101880008F7703C08091B0008F7D8093B000E32FED
:10189000F0E0EE0FFF1FEE58FF4FA591B4912FB768
:1018A000F894662321F48C919095892302C08C9141
:1018B000892B8C932FBF0895CF93DF930E946C0BDD
:1018C0000E946908C0E0D0E00E94D2062097E1F3B0
:1018D0000E940000F9CFCF92DF92EF92FF920F9318
:1018E0001F93CF93DF937C016B018A01C0E0D0E0AE
:1018F0000FC0D6016D916D01D701ED91FC91019062
:10190000F081E02DC7010995C80FD91F0150104083
:101910000115110571F7CE01DF91CF911F910F9144
:10192000FF90EF90DF90CF900895CF93DF93EC017D
:101930006115710519F420E030E00FC0DB010D9056
:101940000020E9F71197A61BB70BE881F981028007
:10195000F381E02DAD0109959C01C901DF91CF9183
:1019600008950E94950C0895629FD001739FF00125
:10197000829FE00DF11D649FE00DF11D929FF00D1F
:10198000839FF00D749FF00D659FF00D9927729F56
:10199000B00DE11DF91F639FB00DE11DF91FBD01E1
:1019A000CF0111240895A1E21A2EAA1BBB1BFD0131
:1019B0000DC0AA1FBB1FEE1FFF1FA217B307E4072E
:1019C000F50720F0A21BB30BE40BF50B661F771F86
:1019D000881F991F1A9469F7609570958095909566
:1019E0009B01AC01BD01CF010895EE0FFF1F0590D3
:1019F000F491E02D09942F923F924F925F926F9253
:101A00007F928F929F92AF92BF92CF92DF92EF928E
:101A1000FF920F931F93CF93DF93CDB7DEB7CA1B0F
:101A2000DB0B0FB6F894DEBF0FBECDBF09942A883A
:101A3000398848885F846E847D848C849B84AA84E2
:101A4000B984C884DF80EE80FD800C811B81AA816F
:101A5000B981CE0FD11D0FB6F894DEBF0FBECDBF3A
:081A6000ED010895F894FFCF99
:101A68005741524E494E470025366C752075522F06
:101A78006800414C41524D2044495341424C450075
:101A8800253031750042555A5A20564F4C554D4510
:101A980020202025327500414C41524D20564F4C94
:101AA800554D45202025327500414C41524D204C62
:101AB8004556454C20202533750052617465202514
:101AC800366C752075522F6800446F73652020208E
:101AD80025366C7520755200202025366C7500253A
:101AE8003032753A253032753A253032750020206B
:101AF8000047656967657220436F756E746572008B
:101B0800576169742061206D6F6D656E74003200D5
:101B1800C8009001580220030A143200040E0E0E69
:101B28001F04000004120A0A120400001F001F000C
:101B38001F000000000000000000150001030F0F47
:101B480003010000000E0A0A1B000001000000004B
:0C1B5800B8096B0C0000400014005400A1
:00000001FF
